:020000040800F2
:1000000000C200209D010008C11B0008AD180008B7
:10001000BF1B000825080008752300080000000029
:10002000000000000000000000000000951E000815
:100030006108000800000000E31B0008971E00088C
:10004000B7010008B7010008B7010008B7010008B0
:10005000B7010008B7010008B7010008B7010008A0
:10006000B7010008B7010008B7010008B701000890
:10007000B7010008B7010008B7010008B701000880
:10008000B7010008B7010008B7010008B701000870
:10009000B7010008B7010008B7010008B701000860
:1000A000B7010008B7010008B7010008B701000850
:1000B000B7010008B7010008B7010008B701000840
:1000C000B7010008B7010008B7010008B701000830
:1000D000B7010008B7010008B7010008B701000820
:1000E000B7010008B7010008B7010008B701000810
:1000F000B7010008B7010008B7010008B701000800
:10010000B7010008B7010008B7010008B7010008EF
:10011000B7010008B7010008B7010008B7010008DF
:10012000B7010008B7010008B7010008B7010008CF
:10013000B7010008B7010008B7010008B7010008BF
:10014000B7010008B7010008B7010008B7010008AF
:10015000B7010008B7010008B7010008B70100089F
:10016000B7010008B7010008B7010008B70100088F
:10017000B7010008B7010008B7010008000000003F
:10018000B7010008B7010008DFF80CD000F09EFAB4
:1001900000480047FD4C000800C200200648804788
:1001A00006480047FEE7FEE7FEE7FEE7FEE7FEE75C
:1001B000FEE7FEE7FEE7FEE7091F000889010008E9
:1001C0002DE9F05F0546002092469B46884606468C
:1001D000814640241BE0284641464746224600F01F
:1001E000A2F853465A46C01A914110D311461846F8
:1001F000224600F019F82D1A67EB01084F462246F7
:100200000120002100F010F817EB00094E41201EDC
:10021000A4F10104DFDC484631462A46434600F09B
:1002200000B830BCBDE8C09F202A04DB203A00FAA9
:1002300002F1002070479140C2F1200320FA03F33D
:1002400019439040704740EA01039B0703D009E03F
:1002500008C9121F08C0042AFAD203E011F8013BB2
:1002600000F8013B521EF9D27047D2B201E000F80B
:10027000012B491EFBD270470022F6E710B513464A
:100280000A4604461946FFF7F0FF204610BD421CFF
:1002900010F8011B0029FBD1801A704730B50446C5
:1002A0000020034600E05B1C934203D2E05CCD5C7F
:1002B000401BF8D030BD30B505460020034600E0B5
:1002C0005B1C934205D2EC5CC85C201A01D1002C67
:1002D000F6D130BD00F0004230F000400AD0C10D30
:1002E00001F56071C0F3160042EA0151C2084007EF
:1002F0001143704700200146704730B50B46014658
:1003000000202022012409E021FA02F59D4205D3B4
:1003100003FA02F5491B04FA02F52844151EA2F15E
:100320000102F1DC30BD202A04DB203A21FA02F080
:100330000021704721FA02F3D040C2F1200291401F
:100340000843194670472DE9FE4F804681EA0300B5
:10035000C00F0C46009021F0004123F00045B8EB9F
:100360000200A94105D24046214690461C460B4654
:10037000024623F00040104347D0270DC7F30A0080
:10038000C3F30A510290401A019040286BDAC3F37C
:10039000130040F4801B0098924620B10023D2EB5A
:1003A000030A63EB0B0B01985946C0F1400250461B
:1003B000FFF73AFF06460D4650465946019A00F0AF
:1003C00097F910EB08006141002487EA115284EA92
:1003D000E7731A4340D0009A62B3019A012A4FEAA8
:1003E000075215DC001B61EB02014FF0004202EAEC
:1003F0000752CDE90042001C41F5801132462B46E0
:1004000000F097F903B000F045B840462146F9E7FF
:10041000001B61EB0201001C41F5801300185B41D9
:100420002018A2F5001747EB030140EAD570B61972
:100430006D4111E06D084FEA360645EAC0754FEA96
:100440000752001B61EB0201001C41F580114908B5
:100450004FEA30000019514132462B4603B000F0FC
:100460001CB800F057B90098012240000023D0EBDF
:10047000020263EBE073009821464FEAE074B8EBA8
:10048000000061EB0401E9E783F000435BE781F0E2
:10049000004158E730BCBDE8C08F30BCBDE8C04F5C
:1004A000FFF7DFBF2DE9FE4F81EA030404F00044AB
:1004B00021F0004100944FF0000B23F0004350EA7C
:1004C00001045ED052EA03045BD0C3F30A54C1F3C3
:1004D0000A552C44A4F2F3340194A0FB0254C1F356
:1004E000130141F48011C3F3130343F4801301FBA0
:1004F000024400FB034E840A970A44EA815447EA07
:100500008357A4FB076802958D0A05FB07854FEA10
:10051000932C04FB0C542705029D4FEA065847EA2A
:100520001637B5EB08056EEB070C870E920E47EAFF
:10053000811742EA8312A7FB0201B6EB0B0164EBC1
:1005400000042B0D43EA0C335E1844EB1C50DA46D2
:100550005146E7FB0201C5F313044FEA0B3343EAAC
:1005600014534FEA0432019C43EA0603A4F10C043D
:100570000294009CCDE900B400F0DBF803B000F079
:1005800003B800200146F9E730BCBDE8C08F2DE973
:10059000F04D81EA030404F0004B21F000451446BD
:1005A0004FF0000A23F0004150EA050220D054EA3F
:1005B00001021DD0C5F30A570246C5F31303C1F368
:1005C0001300C1F30A5640F4801543F48013A7EBDF
:1005D0000608101BD64608F2FD3873EB050002D35F
:1005E00008F1010801E092185B41B8F1000F03DA4D
:1005F00000200146BDE8F08D00204FF48011064632
:1006000084460EE0171B73EB050705D3121B63EB43
:10061000050306434CEA010C49084FEA30009218E2
:100620005B4150EA0107EDD152EA030012D082EAA1
:10063000040083EA0501084305D0101BAB4106D234
:100640000122002306E000224FF0004302E06FF099
:10065000010253101AEB06004CEB085110EB0A0094
:1006600041EB0B01BDE8F04D00F054B8C1F30A5264
:10067000C1F3130140F2FF3341F480119A4202DAD0
:1006800000200146704740F233439A42A2F23342BF
:1006900002DC5242FFF747BEFFF7C6BD30B5041E6D
:1006A00071F1000404DB4FF00044404264EB0101AF
:1006B000141E73F1000405DB1C464FF00043524248
:1006C00063EB0403994208BF904230BD064C074DCE
:1006D00006E0E06840F0010394E807009847103412
:1006E000AC42F6D3FFF754FD8C7C0C08AC7C0C08B4
:1006F000202A06DBCB17203A41FA02F043EAE073E6
:1007000006E041FA02F3D040C2F1200291400843D2
:100710001946704710B5141E73F1000408DA401C26
:1007200041F1000192185B411A4301D120F0010010
:1007300010BD2DE9F04D92469B4611B1B1FA81F200
:1007400002E0B0FA80F220329046FFF76DFD0446D9
:100750000F4640EA0A0041EA0B0153465A46084355
:1007600013D0114653EA010019D0C8F14002504697
:10077000FFF7D9FD05460E46504659464246FFF75B
:1007800053FD084305D0012004E020463946BDE86A
:10079000F08D0020054346EAE0762C4337430A9863
:1007A0006305E40AA0EB08000022FD0A44EA47546E
:1007B0000A3002D500200146E9E701051019694118
:1007C000DDE9084500196941BDE8F04DA2E770B5C3
:1007D0008C1810F8015B15F0070301D110F8013BEC
:1007E0002A1106D110F8012B03E010F8016B01F873
:1007F000016B5B1EF9D12B0705D40023521E0DD4CB
:1008000001F8013BFAE710F8013BCB1A921C03E018
:1008100013F8015B01F8015B521EF9D5A142D8D350
:10082000002070BDFEE700000948016821F00101C9
:10083000016008480121816081680029FCD10649D6
:10084000016000680549884200D0FEE7704700005B
:10085000002000E000300240C2A507F4CDB5E8B5A5
:100860007047F0B5044600201E23012601E05B1E00
:1008700005D303F01F0706FA07F50D42F7D072B152
:10088000082A0AD0102A05D0182A01D1072B06D32E
:100890000120F0BD082BFBD201E0102BF8D2236819
:1008A000596121688B6823F0180313438B60F0BDF6
:1008B00010B5040010D0607F20B9002020772046BA
:1008C00000F030F802206077207938B1D4E90212C4
:1008D0002046FFF7C6FF48B1012010BD216810482F
:1008E00048612068816821F0180181606079A0B1B9
:1008F00020692168086120688168626921F06001CF
:100900001143816020688168A26921F08001114350
:10091000816001206077002010BD4FF0FF30E8E7D4
:10092000B71DC10408B500680649884208D10648C9
:10093000816C41F480518164806C00F4805000909F
:1009400008BD0000003002400010024070B50446AF
:1009500000F006F90546601C00D0641C00F000F9A8
:10096000401BA042FAD370BD2DE9F84FDFF898B1D3
:1009700000234FF0010C4FF0030A4FF00F090BF169
:10098000040EB9E00CFA03F4224070D04D68022D39
:1009900001D0122D0ED1DD0800EB8508D8F82050CB
:1009A0005E07F70E09FA07F6B5430E69BE402E43FF
:1009B000C8F8206007685E0091F804800AFA06F51E
:1009C00008F00308AF4308FA06F848EA0708C0F839
:1009D00000804F68012F05D0022F03D0112F01D0C6
:1009E000122F13D1D0F80880CF6828EA0508B74045
:1009F00047EA08078760D0F804800F7928EA0408DE
:100A0000C7F300179F4047EA08074760D1F8048002
:100A10006FEA0807BF0706D1C76AA743C8F3C00437
:100A20009C403C43C462C468AC438D68B5402543D8
:100A3000C5604C68E4005ED5344C256E45F0010578
:100A40002566246E23F0030504F001040094304C65
:100A50002E19B4689D072F0F09FA07F5AC43B0F1C2
:100A6000904F05D02B4DA84204D101251CE042E057
:100A7000002519E0284DA84201D1022514E0274D98
:100A8000A84201D103250FE0254DA84201D104253C
:100A90000AE0244DA84201D1052505E0224DA842D7
:100AA00001D1062500E00725BD402543B560DBF8F0
:100AB00000405D464E689443F60300D514432C6015
:100AC000DEF8004075464E689443B60300D51443E3
:100AD0002C600D4D08352C684E689443F60200D505
:100AE00014432C60084D0C352C684E689443B602B4
:100AF00000D514432C605B1C0A6832FA03F57FF4BE
:100B000041AF00F013B800000004014000100240A3
:100B1000000001400004004800080048000C0048A4
:100B200000100048001400480018004818BCBDE838
:100B3000E08F0AB1816170478162704702480068A6
:100B4000C0F30B0070470000002004E0004870472D
:100B50000000090101480068000C7047002004E013
:100B60000148006870470000040000200248016846
:100B7000491C01607047000004000020094810B5BE
:100B80000168002441F480710160032000F05AF8EC
:100B9000002000F009F808B1012401E000F01CF881
:100BA000204610BD0020024070B5054609484FF4AC
:100BB0007A7100240068B0FBF1F000F0A3FD08B1E9
:100BC000012404E000222946501E00F01BF82046B4
:100BD00070BD000000000020094808B5016E41F01A
:100BE00001010166016E01F001010091816D41F08A
:100BF00080518165806D00F08050009008BD00003C
:100C000000100240F0B40E4B1B680C46C3F30223E5
:100C1000C3F10705042D00D90425191D072901D2A8
:100C2000002300E0DB1E012606FA05F1491E2140E3
:100C300099409E40761E16403143F0BC00F0C1BF83
:100C40000CED00E0064900F0070208684FF6FF03CC
:100C5000184040EA0220034A104308607047000031
:100C60000CED00E00000FA051649B0F5007F0868B9
:100C7000C0F3412009D0022805D0086820F4C060E4
:100C800040F480600860002070470128FBD00868AD
:100C900020F4C06040F4007008600B483222006805
:100CA00050430A4AB0FBF2F0401C00E0401E4A6983
:100CB000520501D50028F9D148694005E3D5032044
:100CC00070470000007000400000002040420F000C
:100CD0000248006800F4C0607047000000700040E7
:100CE0002DE9F84F044600270088E54D3E460105F2
:100CF00004F1200B1DD5606E78B1B0F5800F11D0D6
:100D0000B0F5000F04D0B0F5400F22D001270FE05E
:100D1000E86840F48030E8601BE00021201D00F00E
:100D200061FF03E00021584600F0F2FF070010D0F9
:100D30003E462088C00426D5A06EC0B1B0F1807FA9
:100D40001AD0B0F1007F0DD0B0F1407F19D001274B
:100D500018E0D5F88800616E20F440000843C5F81B
:100D60008800E6E7E86840F48030E86009E00021A8
:100D7000201D00F037FF03E00021584600F0C8FFB7
:100D80000746F7B13E46206880033AD5A86D4FF07C
:100D90000008C00009D4A86D40F08050A865A86D77
:100DA0004FF0010800F080500090DFF8D8A2DAF888
:100DB000001041F48071CAF80010FFF7D1FE81469F
:100DC00010E0D5F88800A16E20F040700843C5F807
:100DD0008800D8E7FFF7C4FEA0EB0900022801D97C
:100DE000032705E0DAF80000C005F3D5002F7CD01A
:100DF0004FEA0706B8F1000F03D0A86D20F080502D
:100E0000A8652078C00707D0D5F88800A16B20F02E
:100E100003000843C5F888002078800707D5D5F877
:100E20008800E16B20F00C000843C5F888002078AA
:100E3000400707D5D5F88800216C20F03000084322
:100E4000C5F888002078000707D5D5F88800616CC0
:100E500020F0C0000843C5F888002078C00607D5F8
:100E6000D5F88800A16C20F440700843C5F88800CC
:100E70002078800607D5D5F88800E16C20F4406022
:100E80000843C5F888002088800507D5D5F8880074
:100E9000E16D20F440200843C5F888002088400513
:100EA00007D5D5F88800216E20F440100843C5F816
:100EB00088002078400607D5D5F88800216D20F4F9
:100EC00040500843C5F888002078000607D5D5F8BB
:100ED0008800616D20F440400843C5F888002088F0
:100EE000C00509D5D5F8880000E01CE0A16D20F40C
:100EF00040300843C5F8880020884FF00067800420
:100F00004FF080684FD5D5F88800E16E20F0406042
:100F10000843C5F88800E06EB8423CD1E86840F468
:100F20008010E8603FE0D5F8900010F4407015D0D4
:100F3000D4F88410814211D0D5F89000D5F89010E3
:100F400020F4407041F48031C5F89010D5F890102D
:100F500021F48031C5F89010C5F89000C00710D07A
:100F6000FFF7FEFD074641F2883906E0FFF7F8FD7E
:100F7000C11B494501D903263CE7D5F890008007FD
:100F8000F4D5D5F89000D4F8841020F440700843CC
:100F9000C5F890002EE7404505D10121201D00F045
:100FA00021FE00B106462068000317D5D5F8880059
:100FB000216F20F040600843C5F88800206FB842D8
:100FC00004D1E86840F48010E86007E0404505D1AE
:100FD0000121201D00F006FE00B1064620684003F6
:100FE00017D5D5F88800616F20F040600843C5F838
:100FF0008800606FB84204D1E86840F48010E8606F
:1010000007E0404505D10121201D00F0EBFD00B1B6
:101010000646208840041AD5D5F88800A16F20F034
:1010200040500843C5F88800A06FB0F1805F03D03E
:10103000B0F1005F05D00AE00221201D00F0D2FDD2
:1010400003E00221584600F063FE00B10646208806
:10105000000407D5D5F88800E16F20F080400843F0
:10106000C5F888002068C00307D555F8880FD4F864
:10107000801020F0004008432860304600F004B89B
:10108000001002400070004018BCBDE8E08F000076
:101090002DE9F0470F46050058D03F4E306800F06C
:1010A0000700B84209D2306820F0070038433060AA
:1010B000306800F00700B84248D12878374CC007A4
:1010C0002CD06868032811D0022812D0216898B16A
:1010D000490500293ADAA16821F003010143A16022
:1010E000FFF73EFD804641F2883910E02168890112
:1010F000EFE721688903ECE78907EAE7FFF730FDAE
:10110000A0EB0801494502D90320BDE8F087A0689B
:10111000696800F00C00B0EB810FEFD128788007F0
:1011200005D5A068A96820F0F0000843A0603068E9
:1011300000F00700B8420BD9306820F007003843B0
:101140003060306800F00700B84201D00120DCE7D1
:101150002878400705D5A068E96820F4E0600843D6
:10116000A0602878000706D5A068296920F460509F
:1011700040EAC100A06000F041F8A168084AC1F34C
:101180000311515C01F01F01C84006490860BDE829
:10119000F0470020FFF708BD002002400010024089
:1011A000D04F000800000020014800687047000090
:1011B000000000200548064900688968054AC1F317
:1011C0000221515C01F01F01C8407047000000205F
:1011D0000010024010500008054806490068896860
:1011E000054AC1F3C221515C01F01F01C84070479C
:1011F00000000020001002401050000870B5254982
:10120000002318468A68CC6812F00C0204F003062A
:10121000214C4FEA640509D00C2A05D0042A26D0B7
:10122000082A00D1284670BD012E10D10B681B077B
:1012300004D4D1F89430C3F3032302E00B68C3F362
:101240000313164E56F823307AB10C2AEBD1C86836
:1012500000F00302C868C0F30210401C022A08D044
:10126000032A09D0B3FBF0F008E0184670BD204611
:1012700070BDB4FBF0F001E0B5FBF0F0CA68C968DE
:10128000C2F306225043C1F34161491C4900B0FB3F
:10129000F1F070BD001002400024F400E04F00089F
:1012A0002DE9F84305007CD0FD4CA06800F00C0649
:1012B000E06800F003072878C00661D576B10C2EEF
:1012C00001D1012F0AD0A8690028206878D040F009
:1012D00001002060FFF744FC804659E02068800749
:1012E00002D5A8690028DED0286A2168090703D53D
:1012F000216801F0F00104E0D4F89410F02202EA31
:101300001111884215D900F087FD002849D12068C5
:1013100040F0080020602068296A20F0F0000843AF
:1013200020606068E96920F47F4040EA0120606045
:1013300015E0206840F0080020602068296A20F04D
:10134000F000084320606068E96920F47F4040EACB
:1013500001206060286A00F05FFD0028D6D1FFF709
:101360004DFFA168CF4AC1F30311515C01F01F0189
:10137000C840CD4908600020FFF716FC00287DD149
:101380002FE000BFFFF7ECFBA0EB0800022876D8A7
:1013900020688007F6D5206840F0080020602068AB
:1013A00001E0BBE00CE0296A20F0F0000843206077
:1013B0006068E96920F47F4040EA0120606010E045
:1013C00020F001002060FFF7CBFB804606E000BF65
:1013D000FFF7C6FBA0EB08000228D8D820688007DA
:1013E000F6D42878C00740D0082E18D00C2E01D192
:1013F000032F14D06868B0F5803F17D0B0F5A02F48
:10140000206817D020F480302060206820F48020ED
:1014100020606868E0B1FFF7A3FB804614E0206815
:10142000800322D56868002878D01EE0206840F448
:101430008030EDE740F480202060F7E7FFF790FB75
:10144000A0EB08006428A2D820688003F6D50CE041
:10145000FFF786FB804605E0FFF782FBA0EB080064
:10146000642894D820688003F6D4287880073BD578
:10147000042E11D00C2E04D1022F01E036E1A1E0A0
:101480000AD0E868002820681ED040F480702060F0
:10149000FFF766FB07460CE0206840050CD5E868BE
:1014A0000028C1D008E000BFFFF75AFBC01B02288C
:1014B00093D820684005F7D56068297C20F0F85063
:1014C00040EA016060600FE020F480702060FFF768
:1014D00047FB074605E000BFFFF742FBC01B0228A1
:1014E00070D820684005F7D42878000729D56869A6
:1014F0000028D4F8940012D040F00100C4F8940001
:10150000FFF72EFB074604E0FFF72AFBC01B02286B
:1015100058D8D4F894008007F6D512E0EDE020F01A
:101520000100C4F89400FFF71BFB074605E000BF6D
:10153000FFF716FBC01B022844D8D4F8940080079C
:10154000F6D42878400768D5A06D0027C00008D4DD
:10155000A06D40F08050A065A06D012700F0805084
:10156000009052480168C90512D40168814641F4CF
:1015700080710160FFF7F4FA804605E0FFF7F0FAAA
:10158000A0EB080002281DD8D9F80000C005F5D549
:10159000A868012817D00528D4F8900018D020F0AA
:1015A0000100C4F89000D4F8900020F0040000BFBF
:1015B000C4F89000A86841F28839D0B1FFF7D0FA9A
:1015C000804611E06BE0D4F8900040F00100EFE7B6
:1015D00040F00400C4F89000F5E700BFFFF7C0FA40
:1015E000A0EB080149455AD8D4F890008007F5D5FA
:1015F0000EE0FFF7B5FA804606E000BFFFF7B0FA4D
:10160000A0EB0801494570D8D4F890008007F5D4C4
:101610001FB1A06D20F08050A065A86AF0B30C2E19
:101620006BD00228206820F08070206004D02068F1
:1016300010F0205F47D04AE0FFF792FA064604E038
:10164000FFF78EFA801B02284FD820688001F7D45C
:10165000286BE96A000110380843696BAA6B09021C
:10166000120941EA42410843A98F114A490802EB95
:101670004151084395F840104908120102EB4161BD
:101680000843E060206840F080702060E06840F02F
:101690008070E060FFF764FA054610E02BE024E07C
:1016A00000100240D04F00080000002000700040F1
:1016B0000000E0FFFFF754FA401B022815D820680D
:1016C0008001F7D517E0E06820F00300E060E068F3
:1016D0000B490840E060FFF743FA054608E000BF09
:1016E000FFF73EFA401B022802D90320BDE8F88329
:1016F00020688001F4D40020F8E70120F6E700001C
:10170000FFFFEEFE10B5401EB0F1807F01D3012037
:1017100010BD4FF0E02460610F21601700F051FA16
:101720000020A06107202061002010BD10B504003A
:1017300003D094F8710010B107E0012010BD002023
:1017400084F87000204600F027F8242084F8710007
:101750002068016821F001010160204600F088FC4A
:101760000128EBD0606A10B1204600F0EFFB206842
:10177000416821F4904141602068816821F02A018C
:1017800081602068016841F0010101602046BDE8E8
:10179000104000F03FBC000010B586B00446142194
:1017A0006846FEF769FD1249206888421ED111483B
:1017B000816D41F400318165816D01F40031059145
:1017C000C16C41F00801C164C06C694600F00800BA
:1017D00005906020009002200190012002900320DB
:1017E0000390072004900448FFF7BEF806B010BD30
:1017F0000044004000100240000C00482DE9F8436E
:10180000044690F871001F4616460D4620284BD11D
:10181000C5B1BEB194F87000012845D0012084F80C
:1018200070004FF00008C4F87480212084F8710023
:10183000FFF796F9A4F850608146A4F852604FF47F
:10184000805615E00120BDE8F8838021204600F095
:101850005FFDD8B9A068B04201D12069C0B115F8C8
:10186000010B21680885B4F85200401EA4F852000C
:10187000B4F852004B464FF0000200970028E4D124
:101880004FF04001204600F043FD30B10320DAE77D
:1018900035F8020BC0F30800E3E7202084F871005C
:1018A00084F870800020CEE70220CCE7FEE700003D
:1018B0002DE9F04F87B014216846FEF7DDFCA848FB
:1018C000C16C41F01001C164C16C01F010010591BF
:1018D000C16C41F00401C164C16C01F004010591C7
:1018E000C16C41F08001C164C16C01F080010591BF
:1018F000C16C41F00101C164C16C01F001010591AD
:10190000C16C41F00201C164C16C01F0020105919A
:10191000C16C41F00801C164C06C002200F00800F5
:10192000059040F209118F48FFF703F900220C21BE
:101930008D48FFF7FEF8012251028C48FFF7F9F8B5
:1019400000224FF400618948FFF7F3F8002280215C
:101950008748FFF7EEF8F420009001A90220002448
:10196000032681E851000D20049069467D48FEF76A
:10197000FBFF08200125CDE900050220CDE902404A
:1019800069467848FEF7F0FF7A4F4FF41050CDE9E2
:101990000007694602947548FEF7E6FF0720CDE987
:1019A0000004694671480294FEF7DEFF4FF4FC70B4
:1019B00000900220CDE901044FF00B08CDE9034867
:1019C00069466A48FEF7D0FF2F20CDE900040220C7
:1019D00002906946B802FEF7C7FF1020CDE9000764
:1019E00069460294B802FEF7BFFF48F2C07000904B
:1019F0000220CDE90104CDE903486946B802FEF7AB
:101A0000B3FF4FF2332000900220CDE90104CDE96D
:101A1000034869465448FEF7A7FF4FF00409CDE993
:101A20000095CDE9025669464F48FEF79DFF280212
:101A3000CDE90005CDE9025669464A48FEF794FF14
:101A4000680200900220CDE901040D20CDE9034099
:101A500069464448FEF788FF4FF47C40009001AA95
:101A600002204FF00A0A82E8510469463D48FEF719
:101A70007BFFB0024FF0120BCDE9000B02AA6946C2
:101A800082E860023848FEF76FFF4FF47F40009015
:101A90000220CDE90104CDE9034869463448FEF748
:101AA00063FF4FF420600090CDE9015469462F4850
:101AB0000394FEF759FFF002009001AA022082E889
:101AC00051046946B802FEF74FFF4FF00508CDF804
:101AD0000080CDE9017469462548FEF745FF1A20CC
:101AE000009001AA022082E8510169462048FEF7D1
:101AF0003BFF8020CDE90005CDE9024669461C4840
:101B0000FEF732FF08200090CDE9015469461648DF
:101B10000394FEF729FFC020CDE9000B02AA694615
:101B200082E860021048FEF71FFF2802CDE9000797
:101B3000694602940C48FEF717FF0095CDE9015461
:101B4000694608480394FEF70FFF0220CDE900071D
:101B5000694602940348FEF707FF07B000F00CB88F
:101B6000001002400010004800040048000800482F
:101B7000000C00480000121030BCBDE8C08F00000F
:101B80000948084901604FF4E1314160002181605A
:101B90000C22C160C0E904128161C161016241622D
:101BA000FFF7C4BD004400401806002010B5FFF741
:101BB000E7FFBDE8104001F0C1BA01F01FBBFEE72E
:101BC00070470907090E002806DA00F00F0000F13F
:101BD000E02080F8141D704700F1E02080F8001428
:101BE000704770472DE9F041444C05468846E0684F
:101BF0000026810728680DD0E16801F003018142C9
:101C000016D1A8B1E0686968C0F30210401C884290
:101C10000ED120E0012804D0022805D0032807D1E6
:101C200008E02168890701E021684905002907DBF0
:101C300001265FE02168890302D421684903F5E7A2
:101C4000E1686A686FF00F0321F0730103EB021281
:101C500011430143E160206820F080602060FEF7BE
:101C60007FFF074605E000BFFEF77AFFC01B022892
:101C700037D820680001F7D4B8F1000F18D0B8F1B8
:101C8000010F1ED0287D4FF07E41400801EB4060DF
:101C9000A96840EA01202169194A114008432061DE
:101CA000206840F080602060FEF75AFF07461AE087
:101CB000A868E9680002090940EA41402169114A1F
:101CC000EBE7288A1049400801EB4050A96840EA38
:101CD000012021690D4AE0E7FEF742FFC01B022800
:101CE00001D9032606E020680001F5D52069A9691D
:101CF000084320613046BDE8F0810000001002403A
:101D0000FF80FFF9FF80FDFF0000E0FFFF809FFFE5
:101D10002DE9F0413D4C06468846E06800258107E4
:101D200030680DD0E16801F00301814216D1A8B1FD
:101D3000E0687168C0F30210401C88420ED120E0B8
:101D4000012804D0022805D0032807D108E0216823
:101D5000890701E021684905002907DB012551E0D9
:101D60002168890302D421684903F5E7E1687268B4
:101D70006FF00F0321F0730103EB021211430143D3
:101D8000E160206820F080502060FEF7E9FE074601
:101D900005E000BFFEF7E4FEC01B022829D820683A
:101DA0008000F7D4B8F1000F15D0307C4FF07E41A1
:101DB000400801EB4060B16840EA01206169144AC3
:101DC000114008436061206840F080502060FEF7B9
:101DD000C7FE07460FE0B068F1680002090940EA53
:101DE000414061690B4AEBE7FEF7BAFEC01B0228CF
:101DF00001D9032506E020688000F5D56069716986
:101E0000084360612846BDE8F081000000100240F0
:101E1000FF80FFF9FF80FDFFF8B51C4D064600244A
:101E2000A86DC00002D5FEF753FF0DE0A86D40F08D
:101E30008050A865A86D00F080500090FEF748FF24
:101E4000A96D21F08051A965B0F5007F04D0802EE6
:101E500007D94FF003040AE0802E08D9A02E01D83C
:101E600004E001D1022402E0702E00D101240848D0
:101E7000016821F0070121430160006800F00700BC
:101E8000A04201D00120F8BD0020F8BD00100240A2
:101E9000002002407047FEF769BE30B5B9B044215A
:101EA00022A8FEF7E9F9142133A8FEF7E5F9882105
:101EB0006846FEF7E1F90224E00125901020229403
:101EC00026902C940120CDE92D400A202F90072048
:101ED000CDE9300422A83294FFF7E2F90F20002563
:101EE00033900320CDE934053695042133A8379586
:101EF000FFF7CEF80F9568460094FEF7F1FE20023A
:101F0000FEF7B2FE39B030BD0D48016841F47001F2
:101F100001600C48016841F001010160002181600D
:101F20000268094B1A4002608214C260026822F4FF
:101F30008022026081610249C003803908607047D5
:101F400088ED00E000100240FFFFF6EA90F8241050
:101F5000C90706D001684A68836A22F400321A432E
:101F60004A6090F82410890706D501684A68C36A58
:101F700022F480321A434A6090F82410490706D5AB
:101F800001684A68036B22F480221A434A6090F881
:101F90002410090706D501684A68436B22F4004201
:101FA0001A434A6090F82410C90606D501688A6869
:101FB000836B22F480521A438A6090F824108906B9
:101FC00006D501688A68C36B22F400521A438A60FE
:101FD00090F82410490611D501684A68036C22F470
:101FE00080121A434A60016CB1F5801F06D1016866
:101FF0004A68436C22F4C0021A434A6090F82410E5
:10200000090606D501684A68806C22F40022024362
:102010004A607047F8B5002604464667FEF7A0FD03
:102020000546206800686FF07E47000708D52B46FC
:1020300000224FF400112046009700F069F960B9C2
:102040002068006840070AD52B4600224FF4800123
:102050002046009700F05CF908B10320F8BD20206D
:1020600084F8710084F8720084F870600020F8BD74
:102070002DE9F0410446016880682369E669184348
:1020800063691025002733431843954A0B68954E22
:10209000334003430B6020684168E36821F44051FA
:1020A000194341602168A069914201D0236A184315
:1020B0008B6823F4306303438B608B4B21688B4820
:1020C00099420DD1D0F8880010F0030006D0012805
:1020D0005AD0022856D0032859D157E0012556E09E
:1020E000834B99420BD1D0F8880010F00C0047D0F8
:1020F000042849D0082845D00C2848D146E07D4B1B
:1021000099420BD1D0F8880010F0300038D0102858
:102110003AD0202836D0302839D137E0764B994252
:102120000BD1D0F8880010F0C00029D040282BD067
:10213000802827D0C0282AD128E0704B99420ED1A0
:10214000D0F8880010F440701AD0B0F5807F1BD012
:10215000B0F5007F16D0B0F5407F18D116E091425F
:1021600015D1D0F8880010F4406009D0B0F5806F28
:102170000AD0B0F5006F05D0B0F5406F07D105E08B
:10218000002504E0022502E0042500E008255C4B60
:1021900000264FF4004091423DD135B1022D07D0C9
:1021A000042D07D0082D10D107E0FFF703F803E056
:1021B000184602E0FFF722F8A8B3626802EB42017A
:1021C000814202D8B0EB023F01D9012775E0DFF868
:1021D00034815DB1022D0CD0042D13D0082DF4D123
:1021E00050082905401846F1000105E0FEF7E2FF1E
:1021F0000AE050084449F5E70023FDF7E1FFA0F5A8
:10220000407156E0FEF7FAFF6268010E03025008C3
:1022100018187141F0E7E1694FF6EF7881422FD14C
:10222000092DD2D200E048E0DFE805F006092005DC
:10223000230505052600C8E7FEF7BCFF01E0FEF711
:10224000CBFF4100D4F8040001EB5001B1FBF0F0EA
:1022500080B2A0F110014145B7D84FF6F0710140AE
:10226000C0F3420001432068C16026E0274960684E
:10227000EAE7FEF7C3FFE4E74FF480316068E3E785
:10228000092DA2D2DFE805F006091E052205050585
:1022900025009AE7FEF78EFF01E0FEF79DFF01465D
:1022A000606801EB500100BFB1FBF0F080B2A0F11B
:1022B0001001414589D82168C8602666384666669F
:1022C000BDE8F081606803EB5001EDE7FEF796FF93
:1022D000E5E7616800EB5100B0FBF1F0E6E70000D4
:1022E00000800040F369FFEF003801400010024019
:1022F0000044004000480040004C004000500040B6
:102300000024F400FFFC0F00000024F40048E80162
:102310002DE9F041984617460E460446069D1DE0FD
:10232000681C1BD02DB1FEF71BFCA0EB0800A842D7
:1023300014D92068016821F4D07101602068816897
:1023400021F001018160202084F8710084F872007E
:10235000002084F870000320BDE8F0812068C06987
:1023600036EA000004D00020B842D9D00020F3E7BC
:102370000120F9E7FEE700000FB4054B10B503A9F3
:10238000044A029800F028FA10BC5DF814FB000023
:10239000294B0008EC0500204100080218BF04206A
:1023A0000A0E18BF40F001004FF07F4232EA0101EF
:1023B00008BF40F00200012808BF05207047000058
:1023C00010B510EE104A4FF019406849002200EB9A
:1023D00044002DED028B884257D8DFED650A14F0DA
:1023E000004F60EE200A14BFBEEE001AB6EE001ACF
:1023F00071EE200AFDEEE00A10EE900A00EE900A5F
:10240000F8EEE00A9FED5B1A00EEC10A9FED5A1A42
:1024100000EEC10ADFED590A9FED591A00EE201AAD
:10242000DFED580A40EE010A9FED571A574B00F0B6
:10243000030100EE201A21EE000A7B4403EB810326
:10244000D3ED000A524B7B4403EB810393ED001A5A
:10245000504B41EE000A7B4403EB8101801091ED6B
:10246000000A70EE800AEABB00EE100AB8EEC01A4D
:10247000DFED491A9FED490ABDEC028B01EE210AFE
:10248000BCEEC00A20EE200A10BD4FF0FF40A04372
:102490001BD04FF0CE40B0EB440F82BFB7EE000A26
:1024A000BDEC028B10BD3E48B0EB440F28BF0122AB
:1024B00093D2022000F09CF814F0004F15D0BDEC30
:1024C000028BBDE8104000F07BB814F5000F02BF8E
:1024D0009FED340ABDEC028B10BDBDEC028BBDE854
:1024E000104000E007E000F05FB8BDEC028BBDE8F3
:1024F000104000F05DB800EBD07359104FF07E52E1
:1025000002EBC15100EE101AA0EB630002EBC050C9
:1025100060EE200A00EE100A20EE208A18EE100A63
:1025200088B118EE100AB0F1FF4F15D018EE100A5E
:10253000FFF732FF042808BF00F042F8B0EE480A67
:10254000BDEC028B10BD022000F052F8BDEC028BF6
:10255000BDE8104000F034B8022000F049F8BDECAE
:10256000028BBDE8104000F023B800000000501EB0
:102570003BAAB8400070313EF4FD053712BB2A3D3E
:1025800012BB2A3EFFFFFF3EFFFF7F3F82570C003A
:1025900086570C0056570C000000004B00007E4E82
:1025A0000000A0850000000030EE000A7047000027
:1025B0009FED020A20EE000A704700000000007044
:1025C0009FED020A20EE000A704700000000001094
:1025D00002E008C8121F08C1002AFAD170477047EC
:1025E000002001E001C1121F002AFBD1704700004A
:1025F0000149086070470000F00500202DE9FF5FE9
:1026000082B00021DDE90430020DDDF840B0034363
:1026100018D044F61050A2F2FF324243151411981C
:1026200001281FD0A5EB0B00401C5FEA000A4FF009
:1026300000064E4FDFF83891B046504615D5CAF126
:10264000000413E0119801244AA3012801D16FEA84
:102650000B010298119AC0E90031C0E9024206B0AC
:1026600000F08EB8CBF10000DFE704460021404ABD
:10267000491842EB0450CDE9001012E0E00707D002
:1026800032463B4640464946FDF70CFF80468946A8
:1026900032463B4610461946FDF704FF06460F46F4
:1026A0006410002CEAD1DDE90401DDE90023BAF170
:1026B000000F06DAFDF7F6FE42464B46FDF7F2FE46
:1026C00005E0FDF764FF42464B46FDF760FF044618
:1026D0000E460022284BFDF7E1FF03D84FF0FF30F4
:1026E000014607E00022254B20463146FDF72BFE30
:1026F000FDF7BCFF102409E0002C0ADB0A220023AE
:10270000FDF75EFD039B30321A55641E50EA01024C
:10271000F2D1641C039AC4F111031444119A012AE2
:1027200003D0012208430DD10AE0084304D0002061
:102730004FF0110B119072E7A3EB0B056D1E0DE02E
:102740005B4504DD4FF0000205F1010504E003DA0A
:102750004FF00002A5F10105002AECD00298119972
:10276000C0E90231C0E9004579E7000000001440EB
:102770000000F03F300000000000F0430000E03FA8
:1027800030BCBDE8C09F10B5002817D0037ADB43EA
:102790009B0702D0302211210DE081B1CB6873B1CB
:1027A000498871B1AAB1D36873B1528872B19142AC
:1027B0000FD02122022101F0D2FE002010BD1722ED
:1027C00000E021221221F6E7172200E02122132146
:1027D000F1E7012010BD00002DE9FF4F95B09B46A9
:1027E0008946064600250FE2252877D10024274692
:1027F000F84A0121059400E0044316F8013F203B0C
:1028000001FA03F01042F7D130782A2811D06FF086
:102810002F033078A0F13002092A16D8059A44F027
:10282000020402EB820203EB42021044761C059084
:10283000EFE759F8042B0592002A03DA504244F4DA
:102840000054059044F00204761C30782E2816D1EE
:1028500016F8010F44F004042A280DD06FF02F025F
:102860003078A0F13003092B09D807EB870302EB7E
:102870004303C718761CF3E759F8047B761C3078BD
:102880006C280FD006DC4C2817D068280DD06A2899
:1028900014D104E0742810D07A280FD10DE044F44C
:1028A00000140AE044F4801401E044F44014727807
:1028B000824202D104F58014761C761C307866289A
:1028C0000BD013DC582877D009DC002875D04528B8
:1028D000F6D04628F4D047281AD19DE118E06328A5
:1028E00035D0642879D0652812D195E1702873D04D
:1028F00008DC6728F1D069286FD06E280DD06F28CA
:1029000006D1B5E073282CD0752875D0782874D0FE
:102910005A46179990476D1C75E1C4F3025002287E
:1029200009D003280DD0D9F8001004280DD00D606F
:1029300009F1040967E1D9F80010EA17C1E900526A
:10294000F6E7D9F800100D80F2E70D70F0E719F8FE
:10295000041B8DF8001000208DF80100EA460120CC
:1029600003E059F804AB4FF0FF3061074FF000016E
:1029700002D40DE008F101018846B9420FDA804522
:10298000F8DB1AF808100029F4D108E008F1010179
:1029900088468142FADB1AF808100029F6D105981A
:1029A0005B46A0EB080721463846179A00F097FAD5
:1029B000284400EB080507E04DE029E10DE01AF896
:1029C000010B5A4617999047B8F10108F7D25B46B8
:1029D00021463846179A13E142E00A220092C4F3D6
:1029E00002524FF0000A022A08D059F804CB032AF9
:1029F0004FEAEC710AD00DE029E02AE009F1070165
:102A000021F00702F2E802C1914609E00FFA8CFCBE
:102A10004FEAEC71042A03D14FFA8CFC4FEAEC71B7
:102A2000002907DA0A460021DCF1000C61EB020103
:102A30002D2202E0220504D52B228DF8042001224C
:102A400003E0E20701D02022F7E7904659E00A218F
:102A500002E010220DE010214FF0000A00910BE07F
:102A600010224FF0000A44F004040827009203E00B
:102A700008224FF0000A0092C4F30252022A05D045
:102A800059F804CB0021032A08D009E009F1070115
:102A900021F00702F2E802C1914605E01FFA8CFC22
:102AA000042A01D10CF0FF0C4FF00008220728D5B2
:102AB000702806D0009B83F0100353EA0A0305D068
:102AC0000EE040228DF80420012208E05CEA0102B9
:102AD00006D030228DF804208DF8050002229046A1
:102AE000009B83F0080353EA0A030AD15CEA01025F
:102AF00001D1620705D530228DF804204FF001087E
:102B00007F1E582804D034A003900EA802900DE038
:102B100036A0F9E753466046009AFDF751FB84461C
:102B20000398825C0298401E029002705CEA0100E9
:102B3000F0D1029806A9081A00F1200A600702D510
:102B400024F4803400E00127574502DDA7EB0A009A
:102B500000E0002000EB0A01009005984144401A73
:102B60000590E00306D45B462146179A059800F0CD
:102B7000B6F90544002706E001A85A46C05D17993A
:102B800090476D1C7F1C4745F6DBE0030CD55B4688
:102B90002146179A059800F0A2F9054404E0302078
:102BA0005A46179990476D1C0099481E00900029BD
:102BB000F5DC08E0029802995A460078491C029117
:102BC000179990476D1CBAF10001AAF1010AF1DCD6
:102BD00065E10000092801003031323334353637E1
:102BE0003839616263646566000000003031323359
:102BF00034353637383941424344454600000000F9
:102C000000F05BF90544761C307800287FF4ECADC9
:102C100019B0284600F04EB9620700D4062709F122
:102C2000070222F0070CFCE80223E14603F000480B
:102C30005FEA080C02D00FF2702C0DE05FEA045C32
:102C400002D50FF2682C07E05FEAC47C02D00FF2D5
:102C5000602C01E0AFF2700C4FF0FF3823F000431E
:102C6000CDF850C065280CD006DC452809D0462890
:102C70001DD047283DD13DE0662818D067287ED179
:102C800038E00021112F01DB112000E0781CCDE994
:102C9000000106A90EA8FFF7B1FCDDE90F010E9AAD
:102CA00003910021009207F1010A04914DE04FF0D9
:102CB00000400097CDE9011006A90EA8FFF79EFC81
:102CC000DDE90F0203920E9B11990022DDF80CA0A2
:102CD0000093049211B9791C00EB010AB7EB0A00CA
:102CE00004D4C0F1FF3007F1010A0490AAEB0700F9
:102CF000019044E0012F00DA01270021112F01DDAE
:102D0000112000E03846CDE9000106A90EA8FFF722
:102D100075FCDDE90F010E9A0391002104910092E8
:102D2000BA4621070CD40399514500DA8A46BAF114
:102D3000010F05DD009AAAF10101515C302908D08C
:102D4000B84202DA10F1040F06DA0121CDE90110D0
:102D500015E0AAF10101E9E7002805DC0499014426
:102D60000491AAEB000102E0411C514500DD8A46B6
:102D70000499401A401C01904FF000400290200737
:102D800004D40198504501DBCDF8048000208DF873
:102D90004F0002980DF14F07B0F1004F25D02B20C6
:102DA0000E9002984FF0020800280CDA4042029080
:102DB0002D200E9007E00A210298FDF79EFA30318F
:102DC000029007F8011DB8F10001A8F10108F2DC3A
:102DD00002980028EFD1791E0E980870307800F024
:102DE000200040F0450007F8020D12A8C01B00F1BA
:102DF00007081498007800B1012000EB0A0101983F
:102E000001EBE07105984144401A401E0590E00333
:102E100006D45B462146179A059800F060F80544F1
:102E20001498007818B15A46179990476D1CE00322
:102E300024D55B462146179A059800F050F80544C2
:102E40001CE00498002807DBDDE90301884203DD6C
:102E50000098405C179901E0179930205A46904736
:102E6000049805F10105401C04900198401E019052
:102E700004D12E205A46179990476D1CBAF10001D3
:102E8000AAF1010ADDDC05E017F8010B5A46179993
:102E900090476D1CB8F10001A8F10108F4DC5B4615
:102EA0002146179A0598ABE62D0000002B00000084
:102EB0002000000030BCBDE8C08F2DE9F041044681
:102EC00000251E461746880404D405E03946202014
:102ED000B0476D1C641EF9D52846BDE8F0812DE988
:102EE000F041044600251E469046C80301D5302710
:102EF00000E02027880404D505E041463846B04765
:102F00006D1C641EF9D52846BDE8F08130B50C462D
:102F10000546014689B024A0FFF72EFA2A48C4EBE3
:102F2000041100EB01110C460022284601F0BAF80A
:102F300010F0FF0F06D025A100F0D0F84FF0FF30C1
:102F400009B030BD211D206801F014F9002588B1B9
:102F5000201D00F06BFC22A0FFF70EFA202227496B
:102F60006846FDF770F96946206801F01FF970B1F5
:102F70000020E5E7206801F0E9F821A100F0AEF8B3
:102F8000206801F0BDF86FF001002560D8E72068E7
:102F900001F0DCF820A100F0A1F8206801F0B0F801
:102FA0006FF003002560CBE74372656174696E675B
:102FB00020746865206E6574776F726B20222573AC
:102FC000222E2E0D0A000000B806002061695F6DF8
:102FD0006E6574776F726B5F637265617465000014
:102FE000496E697469616C697A696E672074686595
:102FF000206E6574776F726B0D0A0000C05C00086C
:1030000061695F6D6E6574776F726B5F6765745F22
:10301000696E666F0000000061695F6D6E657477B0
:103020006F726B5F696E6974000000008188C288EE
:103030008068514348437047FEB500240320009048
:10304000CDE901044FF0FF352346224601210FA0B0
:10305000FFF792F91A4800260460C0F88040A0F8F3
:1030600084403146002001F063F8040009D0014695
:1030700014A0FFF781F931462046FFF747FF05000E
:1030800002D1761C002CECD12846FEBD0D0A414928
:1030900020706C6174666F726D2028415049202544
:1030A000642E25642E2564202D2052554E54494D02
:1030B000452025642E25642E2564290D0A00000074
:1030C000B80600200D0A466F756E64206E65747731
:1030D0006F726B20222573220D0A0000020A29B1AB
:1030E000C0B21346024603A0FFF746B9C1B20BA017
:1030F000FFF742B9453A204149206572726F72204C
:1031000028257329202D20747970653D256420635E
:103110006F64653D25640D0A00000000453A2041BA
:1031200049206572726F72202D20747970653D257B
:103130006420636F64653D25640D0A0010B501F0DD
:1031400007FDFFF779FF040009D001460CA0FFF747
:1031500013F94FF4FA60FDF7F9FB204610BD0EA0FD
:10316000FFF70AF90DA0FFF707F918A0FFF704F918
:103170000AA0FFF701F908A0FFF7FEF8002010BD34
:103180000D0A453A20206169496E69742829207228
:103190003D25640D0A0000000D0A00002D2D2D2D87
:1031A0002D2D2D2D2D2D2D2D2D2D2D2D2D2D2D2D4F
:1031B0002D2D2D2D2D2D2D2D2D2D2D2D2D2D2D2D3F
:1031C0002D2D2D2D2D2D2D0D0A0000007C2052457A
:1031D00041445920746F207072656469637420647F
:1031E0006174612066726F6D207468652073656E0E
:1031F000736F722E2E2E207C0D0A00002DE9F043F5
:10320000B34C8BB0B3A06168FFF7B6F8218FB6A0BE
:10321000FFF7B2F8618FBAA0FFF7AEF8BEA0216C3D
:10322000FFF7AAF8A18FC2A0FFF7A6F8E18FC5A00B
:10323000FFF7A2F8206808B1C7A000E0CFA0FFF711
:103240009BF8D7A0FFF798F84FF487763146DBA0BC
:10325000FFF792F89E490020DD4AF03102EB80032F
:1032600093ED000A01EB8003401C83ED000AB0429D
:10327000F4D34FF00109D74DADF80690884604917C
:10328000ADF81690D4A00895FFF776F805AA01A925
:10329000206800F0D2FF0746D3A0FFF76DF839464B
:1032A000D5A0FFF769F80621D9A0FFF765F8002738
:1032B00055F82700FDF70EF841EC100BD8A053ECA1
:1032C000102BFFF759F87F1C062FF1D38BA0FFF7C7
:1032D00053F80621BF4801F0B1F910F0FF007CD08F
:1032E00001287BD002287AD0032879D0042878D00E
:1032F000052877D0CCA000BFFFF73EF87FA0FFF7EE
:103300003BF87EA0FFF738F8CEA0FFF735F831463E
:10331000AAA0FFF731F8D24A0020414602EB800311
:1033200093ED000A01EB8003401C83ED000AB042DC
:10333000F4D34846C846ADF80690ADF81600894665
:103340000491A5A00895FFF717F805AA01A9206820
:1033500000F073FF0746A4A0FFF70EF83946A6A0B9
:10336000FFF70AF80621AAA0FFF706F85FF00007AA
:1033700055F82700FCF7AEFF41EC100BA8A053EC6A
:10338000102BFEF7F9FF7F1C062FF1D35BA0FEF791
:10339000F3FF06218F4801F051F910F0FF0071D0C2
:1033A000012870D003286FD004286ED005286DD076
:1033B0009DA000BFFEF7E0FF50A0FEF7DDFF4FA08D
:1033C000FEF7DAFFA7A0FEF7D7FF31467BA0FEF796
:1033D000D3FF00204946A84A05E058E059E05AE0EA
:1033E0005BE05CE05DE002EB800393ED000A01EB43
:1033F0008003401C83ED000AB042EDD3ADF8068097
:10340000CDF81090ADF8168073A00895FEF7B4FFC4
:1034100005AA01A9206800F010FF044672A0FEF77B
:10342000ABFF214674A0FEF7A7FF062178A0FEF7A8
:10343000A3FF002455F82400FCF74CFF41EC100BCF
:1034400077A053EC102BFEF797FF641C062CF1D3EA
:103450002AA0FEF791FF06215E4801F0EFF810F078
:10346000FF002AD001282AD003282AD004282AD0F5
:1034700005282AD06CA000BFFEF77EFF0BB0504697
:10348000BDE8F0830FE010E011E012E013E07BA054
:1034900032E783A030E78AA02EE791A02CE798A01E
:1034A0002AE79FA028E775A084E77DA082E78CA08B
:1034B00080E793A07EE79AA07CE770A0DCE778A085
:1034C000DAE787A0D8E78EA0D6E795A0D4E700007A
:1034D000B80600204D6F64656C204E616D652C2030
:1034E00025730A0D000000004D6F64656C20666F47
:1034F000726D61742C203078253032580A0D00002E
:103500004D6F64656C206E5F626174636865732CD7
:103510002025640A0D0000004D6F64656C2063680F
:10352000616E6E656C732C2025640A0D000000002E
:103530004D6F64656C206865696768742C2025642C
:103540000A0D00004D6F64656C2077696474682C07
:103550002025640A0D0000004D6F64656C206E65C7
:1035600074776F726B2068616E6C6465722C206971
:1035700073206E756C6C0A0D000000004D6F646561
:103580006C206E6574776F726B2068616E6C646519
:10359000722C2069732774206E756C6C0A0D000004
:1035A000414920496E7075742074797065204A6FA6
:1035B0006767696E67200A0D0000000041492049D5
:1035C0006E7075742073697A652025640A0D000099
:1035D00088580008E00B0020537461727420507208
:1035E00065646963740A0D00456E642050726564F9
:1035F0006963740A0D00000061692072756E206DA8
:103600006E6574776F726B2025640A0D00000000F0
:103610006169204F555453495A452025640A0D00CD
:10362000252E3032662C0000416374697669747906
:1036300020707265646963743A3A20556E6B6E6FE0
:10364000770A0D00414920496E70757420747970B5
:10365000652057616C6B696E67200A0D00000000E1
:1036600050540008414920496E7075742074797077
:10367000652055500A0D0000185000084163746918
:103680007669747920707265646963743A3A20448B
:103690004F574E535441524952530A0D00000000F7
:1036A00041637469766974792070726564696374C2
:1036B0003A3A204A4F4747494E470A0D000000005A
:1036C00041637469766974792070726564696374A2
:1036D0003A3A2053495454494E470A0D000000001D
:1036E0004163746976697479207072656469637482
:1036F0003A3A205354414E44494E470A0D000000C7
:103700004163746976697479207072656469637461
:103710003A3A2055505354414952530A0D00000083
:103720004163746976697479207072656469637441
:103730003A3A2057414C4B494E470A0D00000000D1
:103740003EB5054608880C46B0B1012816D01028B1
:1037500016D0322816D0312816D00CA30846FFF711
:1037600065FCA1680091CDE90103E388A2882946A0
:1037700008A0FEF701FE3EBD10A3EFE715A3EDE79D
:103780001AA3EBE71EA3E9E723A3E7E7554E4B4E49
:103790004F574E00257320485743206C61796F7551
:1037A000743A25642C25642C256C642028733A25F2
:1037B0006C6420663A2573290D0A000041495F4276
:1037C00055464645525F464F524D41545F4E4F4E0F
:1037D0004500000041495F4255464645525F464F0D
:1037E000524D41545F464C4F4154000041495F42A5
:1037F00055464645525F464F524D41545F5538003D
:1038000041495F4255464645525F464F524D4154ED
:103810005F5131350000000041495F425546464541
:10382000525F464F524D41545F51370038B5044600
:1038300027A0FEF7A1FD2DA02168FEF79DFD32A077
:103840006168FEF799FD37A0A168FEF795FD3CA0E1
:10385000E168FEF791FDA07D0090637D227D3FA091
:103860002169FEF789FDA07F0090637F227F45A03C
:10387000A169FEF781FD4DA0FEF77EFD50A0616FAE
:10388000FEF77AFD55A0E16AFEF776FD04F15400DB
:10389000FFF7CCFB01465AA0FEF76EFD04F1640071
:1038A000FFF7C4FB01465FA0FEF766FD628E218E26
:1038B00065A0FEF761FD04F134016BA0FFF740FF46
:1038C00004F14401BDE838406DA0FFF739BF0000A6
:1038D0004E6574776F726B20636F6E666967757281
:1038E0006174696F6E2E2E2E0D0A0000204D6F64DC
:1038F000656C206E616D6520202020202020202016
:103900003A2025730D0A0000204D6F64656C20730A
:1039100069676E6174757265202020203A202573D6
:103920000D0A0000204D6F64656C2064617465743D
:10393000696D6520202020203A2025730D0A0000A3
:1039400020436F6D70696C65206461746574696D86
:10395000652020203A2025730D0A00002052756E44
:1039600074696D65207265766973696F6E202020B9
:103970003A202573202825642E25642E2564290DE0
:103980000A00000020546F6F6C20726576697369BD
:103990006F6E2020202020203A20257320282564C7
:1039A0002E25642E2564290D0A0000004E657477CB
:1039B0006F726B20696E666F2E2E2E0D0A0000004E
:1039C00020206E6F6465732020202020202020207E
:1039D000202020203A20256C640D0A002020636FEF
:1039E0006D706C657869747920202020202020205B
:1039F0003A20256C64204D4143430D0A000000002D
:103A0000202061637469766174696F6E20202020C4
:103A1000202020203A20256C642062797465730D83
:103A20000A000000202077656967687473202020F1
:103A300020202020202020203A20256C642062793C
:103A40007465730D0A0000002020696E7075747330
:103A50002F6F757470757473202020203A2025759F
:103A60002F25750D0A0000002020494E2074656E38
:103A7000736F7220666F726D617420203A000000CF
:103A800020204F55542074656E736F7220666F72DC
:103A90006D6174203A00000099B1C0F3C612C0F302
:103AA0008233134403FB01F2D21D22F00701C0F35D
:103AB0004152D140C0F34340042804D0082807D124
:103AC00004E00020704701EB031101E001EB03214A
:103AD000C91DC8087047000008B509A10968009110
:103AE00048B101789DF80020914204D10422694632
:103AF000FCF7D4FB08B1002008BD012008BD000080
:103B0000038404842DE9FF4F83B00DF1580ADDE9E9
:103B100011479AE80203B7FBF4FADDE91360199D37
:103B2000DDF840E0771B67430297DDF854C0471B80
:103B30000197ACEB08074743009701FB0090049FF7
:103B400003EB8000BE4502D19FED322A01E0B7EEC3
:103B5000002A7143614302EB81024FF0000902EB3E
:103B6000840B51E000274CE00EEB8901002691ED1B
:103B7000000A114620EE020A36E0002325F0030C6D
:103B80001CE000BF91ED004AD0ED004AD1ED011AD2
:103B900090ED011A04EE840AD1ED020AD0ED023A4A
:103BA00091ED033AD0ED032A103001EE210A01EB2A
:103BB00004111B1D03EEA00A02EE830A9C45E1DC02
:103BC00009E000BFF0EC010A91ED001A01EB84015D
:103BD0005B1C00EE810AAB42F4DB029B761C01EB1E
:103BE0008301019B00EB83004645C6DB00997F1CE7
:103BF00000EB8100049901EB890109F1010981EDD4
:103C0000000A5745B0D3121D9345ABD807B000F05A
:103C100003B800000000000030BCBDE8C08F2DE9F3
:103C2000FF4F8BB09B469646DDE91806DDE9214241
:103C3000DDE91F53DDE91C87DDE91AA9DDF878C04D
:103C400000B908465B1B121BBCF1010F13D0B44531
:103C500021D1CDE90653CDE90842CDE90006CDE9F1
:103C600002A9CDE904875B4672460B98FFF74AFF2D
:103C70000FB000F021B8CDE90653CDE90842CDE9F7
:103C80000006CDE902A9CDE904875B4672460B9890
:103C900000F09AF8ECE7CDE90942CDE903980090ED
:103CA000CDE90753CDE9016ACDE9057C5B46724653
:103CB0000B9800F005F8DBE730BCBDE8C08F0000D2
:103CC0002DE9FF4F84B00DF1480BDDF85CA09BE8B7
:103CD0002101B5FBFAFB9146B0FBFAF1DDE9152EA7
:103CE0001B9EDDE91847A8EB060545430395451AD9
:103CF0000295951B4D43019501FB02F5AEEB070CB8
:103D000005FB0CF500951A9D04FB02524A4303EB98
:103D10008202059D119BAB4202D1DFED280A01E032
:103D2000F7EE000A04FB08F444434FF0000809EBE7
:103D3000840E40463BE0002533E01198002400EB60
:103D4000880090ED000A704620EE200A1CE0002357
:103D500011E000BF00EB810C06E000BFB2EC011ADD
:103D6000F0EC011A01EE210A6045F7D3DDF808C036
:103D70005B1C00EB8C00B342ECDB039B641C00EB90
:103D80008300019B02EB8302BC42E0DB00986D1CC8
:103D900002EB8002059800EB880008F1010880ED35
:103DA000000A5D45C9D30EEB810E09F10100814681
:103DB0005045C0D308B000F003B800000000000078
:103DC00030BCBDE8C08F00002DE9FF4F81B08A46AE
:103DD000DDE91161DDE90E82DDE91447179DDDF8AB
:103DE0004CC0701B50430090481B00FB02FE02FBBE
:103DF00001F0ACEB070C00FB0CFB1698DDF84090D3
:103E000004FB0100504303EB800102FB05F0D045A9
:103E100002D1DFED2B0A01E0F7EE000A74435443B0
:103E2000039A02EB8406002444E000BF08EB8402FE
:103E3000002592ED000A324620EE200A31E00023F0
:103E400020F0030C1BE000BF92ED004AD1ED004AC8
:103E5000D2ED012AD1ED013A04EE840A92ED022A54
:103E600091ED023AD2ED031A91ED031A103103EEEF
:103E7000A20A10321B1D03EE020A01EE210A9C4524
:103E8000E2DC06E0F1EC011A5B1CB2EC011A01EE77
:103E9000810A8342F6DB009B01EB8E0102EB830279
:103EA0006D1CBD42CBDB0AEB840201EB8B0182ED82
:103EB000000A641C4C45B9D305B000F003B80000FB
:103EC0000000000030BCBDE8C08F70470846704756
:103ED000F0B59FED1A0A059D25F0010403EB84045B
:103EE00016E000BF11F8016B93ED001A370902EBE1
:103EF000870706F00F06D7ED000A02EB860600EEF4
:103F0000810AD6ED000A93ED011A083300EE810A0A
:103F1000A342E7D3EC0709D0097893ED001A090909
:103F200002EB8101D1ED000A00EE810AD0ED000A1A
:103F300030EE800A80ED000AF0BD000000000000B5
:103F400070B59FED3C0A049C03EB840504F0030666
:103F5000103D29E011F8014B02EB840494ED002A96
:103F600011F8014B02EB8404D4ED001A11F8024B56
:103F700002EB840494ED001A11F8014C02EB840466
:103F8000D4ED000A1C461033D4ED002A02EE220ABA
:103F900094ED012A01EE820AD4ED021A01EE210A03
:103FA00094ED031A00EE810AAB42D3D906B3012E79
:103FB00004D0022E0AD0032E1AD120E0097893ED06
:103FC000001A02EB8101D1ED000A0FE00C7893EDAD
:103FD000001A02EB84044978D4ED000A02EB810157
:103FE00000EE810AD1ED000A93ED011A00EE810A7C
:103FF000D0ED000A30EE800A80ED000A70BD0C782A
:1040000093ED001A02EB8404D4ED000A4C78897811
:1040100000EE810A02EB840493ED011AD4ED000A4C
:1040200002EB810100EE810AD1ED000A93ED021A44
:10403000DCE700000000000010B5C16804468847B6
:10404000A068A04200D1002010BD10B50446C06B8E
:10405000002805D02064FFF7EFFF20640028FAD184
:1040600010BD0000F8B51D4616460F469FED090A23
:1040700004468DED000A6B462A463146384600F06C
:1040800093FA94ED000ADDED000A30EE200A84ED8B
:10409000000AF8BD0000000010B50446FCF7D3F894
:1040A000204610BD2DE9F041804617460D46002000
:1040B00000F06EF8060015D0104C4046214600F086
:1040C000A2F888B1BFB1226B394628469047010A51
:1040D00006D110F0FF0F03D13460296871602E60A3
:1040E000BDE8F081312000E0142060F30705E8B25C
:1040F00000F58050F4E7226B616AE6E7884F00081C
:1041000070B5054600F044F804000CD0D4E9001066
:10411000896B88476168814205D004480021A0422C
:1041200000D101600025284670BD000090060020E7
:1041300070B5054C0D46214600F065F810B90DB17B
:10414000002070BD206870BD884F000810B5014682
:10415000142262F30700C4B2084604F5805400F04C
:1041600017F828B103C8426BBDE810400846104755
:10417000204610BD10B50C4600F00AF8002806D005
:1041800005C82146C36ABDE810401046184710BD57
:104190000100054803D0884204D1084670470168F1
:1041A0000029FBD0002070479006002030B589B070
:1041B0000D46FFF7EDFF040023D02168202268465A
:1041C000091DFCF740F8688A38B105F110000DF1BF
:1041D000100C0FC88CE80F0001E0E86907906888B0
:1041E00020B195E80F008DE80F0003E02068806A99
:1041F00080470390D4E90010CA6B6946904709B024
:1042000030BD0020FBE770B50C46050011D02068DA
:10421000FCF73DF806462846FCF739F8864208D1F7
:104220002068FCF734F8024629462068FCF743F87A
:1042300008B1002070BD012070BD70B514460D4658
:10424000FFF7A6FF002808D009C82246066C2946B9
:10425000B446BDE870401846604770BD1CB50023E9
:104260000122CDE900231346014A00F089F81CBD64
:104270005C02002000487047E05C000800F0B8B81D
:10428000002200F0FDB800F0BDB8000030B59FB0CE
:104290000D4600F05DF80446BDB3B4B37C221C4962
:1042A0006846FBF7D0FF00F061F9049000F066F972
:1042B000059000F043F8099000F058F80A9004F1D6
:1042C00024000DF1540C0FC88CE80F0004F1140009
:1042D0000DF1640C0FC88CE80F0060681E90E06B55
:1042E00040B11D99491C1D918268824202D00AB1D9
:1042F0001046F6E77C2269462846FBF7A4FF1D9886
:10430000002800D001201FB030BDFFE70020FAE7F1
:10431000147B0C0870B50E4600F082F8041E09D01C
:10432000314600F041FD054606F11001204600F03F
:104330000DFD284070BD00F0A3B80000034810B583
:104340000469FCF771FA204610BD0000907B0C0850
:1043500010B518B1044A0168914200D0002004460B
:10436000FCF762FA204610BD0001C0A1034810B559
:104370004469FCF759FA204610BD0000907B0C08F8
:104380002DE9F8430546DDE9081091461A0642EA90
:1043900001414FF0000841EA00274446FCF744FA87
:1043A0000F4E65B10F49C9F80010C5F8009000F034
:1043B00035F938B10C48874206D974680CE0F069C9
:1043C000BDE8F883346807E008A0006800906846FC
:1043D000FFF782FB10B9B468C5F800802046EFE70C
:1043E000907B0C080001C0A100000101038404843B
:1043F00010B50446FFF7ACFF08B1002010BD204601
:1044000010BD000010B5FFF7A3FF20B1BDE81040BC
:104410000C3000F0FDB80148806910BD907B0C089D
:1044200070B50C46FFF794FF002827D0ECB1E26985
:10443000E168E2B10A001CD094E82C00C0E9075101
:104440001034C0E905231ECC00F1240585E81E00C8
:1044500003218160C16B002910D048608A688A42BC
:104460000CD0002A0AD01146F7E7112202E01322ED
:1044700000E01222102100F072F8002070BD000050
:104480002DE9F74F84B09246FFF762FF044652468B
:104490000599FEF778F9002854D0A168022000EAB7
:1044A000D110C1F340270743606B0568A06B066815
:1044B000D5E90001FFF7F0FA0090D6E90001FFF717
:1044C000EBFA83460598D0F80C805FEA0A0001D029
:1044D000DAF80C008146B80701D51C4800E01C48FA
:1044E0000290F80701D0194800E01A480190059899
:1044F0004088208200206082B80701D4C5E9028884
:10450000BAF1000F19D0F80717D1C6E9029914E0E3
:10451000029BA8684146009A9847A8602046FFF78A
:1045200094FD019B5A464846B168984700EB0B0939
:10453000608A009A401C90446082608A218A884286
:10454000E6D380B207B000F007B800009940000839
:10455000CD3E0008CB3E000830BCBDE8C08F00282F
:1045600002D00C3000F05CB87047000010B5FCF7CA
:104570005BF901A010BD000000000000034810B569
:10458000C468FCF751F9204610BD0000907B0C0870
:10459000024601205FF0000152F82130491C5843C7
:1045A0000429F9D37047000010B59FED180A94084C
:1045B0001BE000BFD0ED000A91ED001A00EE810A69
:1045C000D0ED010A91ED011A00EE810AD0ED020A48
:1045D00091ED021A00EE810AD0ED030A91ED031A63
:1045E00010301031641E00EE810A002CE2D102F07E
:1045F000030206E0F0EC010A521EB1EC011A00EED3
:10460000810A002AF6D183ED000A10BD00000000E7
:10461000002201680270026008467047012070475E
:10462000037813F0FF0F01D000207047017001687C
:1046300062F31F210160012070470000034610B59E
:10464000FF209FED0A0A00220DE000BF03EB820469
:10465000D4ED000AF4EEC00AF1EE10FA02DDD0B299
:10466000B0EE600A521C8A42F0D310BD0000000078
:1046700040F24642A0F24641904221D012DC40F284
:104680003142A0F2314190421CD006DCA0F580609E
:1046900015381DD00D280DD10EE0042914D007299E
:1046A00008D10BE0032917D00A2917D01C290DD0F7
:1046B0002A290FD00A4870470AA070470DA07047FA
:1046C00010A0704713A0704716A0704718A070473D
:1046D0001AA070471CA070471EA0704720A070470A
:1046E0008C37000853544D33324633303378422FE1
:1046F0004300000053544D33324633303378362F65
:104700003800000053544D33324633303378442F51
:104710004500000053544D33324634313178432F35
:104720004500000053544D33324C343378787800D0
:1047300053544D33324C34357878780053544D33DC
:10474000324C34783678780053544D33324C3452EE
:104750007878780053544D3332463734787878007F
:1047600053544D3332483734332F37353320616E4D
:10477000642053544D333248373530002DE9F04F23
:104780004169BBB00B6819689C680A685968D4E92C
:104790000034D2E90756096819963195956829952C
:1047A0008D680C95D1F810C0CDF890C0CD683095CB
:1047B00015691895058CD2F80CB0ADB22395858C8F
:1047C000ADB22295058DADB23895858DADB23795D8
:1047D000058EAEB2858E1FFA85F985691695D3E9E7
:1047E000028A856B2F95C56B2E95056C2D95456CB2
:1047F0002C95856C39950D6AC76C05FB0CF5D1F8C5
:104800001CC0CDF8ACC0126892682A921A689268EF
:104810001D9214B12268926800E000221F92C269C2
:1048200002B9624A1792006D26903898ABEB0802E5
:10483000104482192398B2FBF0F0401C2190189A82
:104840003798A2EB0A02024422984A44B2FBF0F0E5
:10485000401C2090086880680E9028443A90784266
:104860001090002099E01098002800DC002034907F
:1048700010992E9808442099884200D908461B9028
:10488000399840420F9000207CE00E980B900F98D2
:10489000002800DC002036902F990F9808442199B9
:1048A000884200D90846814634991B98369A091ADD
:1048B000A2EB0900414300263591349D55E0229832
:1048C00005FB00F137980F1A7842002800DC002021
:1048D000289018985146C01B504500D30846279091
:1048E000369C3FE0239838996043421A5042002892
:1048F00000DC0020ABEB02014346414500D31946E2
:104900001318319A5343199A07FB0232DDE9273C09
:10491000CDE90901CDE907C31698CDE905A0CDE998
:1049200003B81F980C9B29998DE80B002A981D9BB2
:10493000024400200B99FFF772F9DDE90B12179B77
:10494000084698473598761CB04200D000200C9B52
:104950000090DDF898C01A460B990E98E0473A98F7
:10496000641C0B904C45BDDB6D1C1B988542A6DB7F
:104970002D990F9808440F902B990E9808440E908B
:104980001C98401C1C9030998842FFF47EAF10990F
:104990002C98084410903398401C0146339024987A
:1049A0008142FFF460AF3BB000F002B84D4B00080D
:1049B00030BCBDE8C08F00002DE9F04F00242DED84
:1049C000028B89B040690168086802684868896894
:1049D0000068D1E900910491D2F808B08168039190
:1049E000D0E9031359430691D9F8003019680294AD
:1049F000C1F3C614C1F34155EC40C1F343410594E2
:104A0000042901D0082901D1D96802910068D9F898
:104A100018A04FF00008846810689FED2C8A806809
:104A20000190039804EB800748E000BFD9F800002C
:104A30008668049810B10068856800E00025029837
:104A4000C0B930E015B1B5EC010A01E0B0EE480A9A
:104A50008DED070A0598CDF800B0DDE90132042894
:104A6000314607A809D0FFF76BFA9DED070A5644B7
:104A7000A4EC010ABC42E5D317E0FFF729FAF4E7FA
:104A800015B1B5EC010A01E0B0EE480A8DED000A5F
:104A90005B4631466846019AFFF7E4FA9DED000A4D
:104AA0005644A4EC010ABC42EAD3019808F101087B
:104AB00000EB8B000190039807EB8007069988456F
:104AC000B4D309B0BDEC028B00F002B800000000C6
:104AD00030BCBDE8C08F70B54069006801684068AF
:104AE0000C680568201DFFF753FD024620688168A9
:104AF00028688068BDE8704000F0AEB97CB54069B8
:104B00000068016840680C680668201DA568FFF70A
:104B10003FFD02460095019520682B46816830686C
:104B2000806800F0B1F97CBD13B50648007830B15B
:104B30004FF0FF33012269460348FCF75FFE0098FF
:104B40001CBD00000800002018060020704700006F
:104B50007CB53048046830A0FDF70EFCFBF7FAFF87
:104B60000646FBF7EBFF80B2FFF782FD0546FBF739
:104B7000E5FF014633462A4630A0FDF7FDFB3CA386
:104B80003EA2042140A0FDF7F7FB474D4FF48030D3
:104B9000A860FBF7DBFF014644A0FDF7EDFBFCF747
:104BA00003FB4949B0FBF1F148A0FDF7E5FBA8681C
:104BB00040F0807204F0070040EA0201A960E205BB
:104BC00002D541F48071A960A10503D5A96841F41B
:104BD0000071A960610503D5A96841F48061A960ED
:104BE000C4F3802109B140A500E041A5C4F34021F0
:104BF00009B13DA300E03EA3C4F3002109B13AA2EC
:104C000000E03BA2CDE9005021463B48FDF7B4FB54
:104C10007CBD00000020024053544D3332205275B9
:104C20006E74696D6520636F6E6669677572617415
:104C3000696F6E2E2E2E0D0A00000000204465764E
:104C4000696365202020202020203A204465764991
:104C5000443A307825303878202825732920526549
:104C60007649443A3078253038780D0A0000000043
:104C7000616E642075736564000000004650552025
:104C800050524553454E540020436F726520417287
:104C900063682E2020203A204D2564202D20257386
:104CA0002025730D0A000000080000202048414C18
:104CB0002076657273696F6E20203A203078253037
:104CC00038780D0A0000000040420F00207379730D
:104CD00074656D20636C6F636B203A202575204DE1
:104CE000487A0D0A0000000054727565000000004B
:104CF00046616C7365000000E87B0C0810B5FBF79B
:104D00003DFFFDF7CAF8FCF7D3FD0B4809490160E8
:104D10000021017141714161816101210162FBF753
:104D2000C7FDFCF743FF05A0FDF726FBFCF745FF99
:104D3000002010BD00300240F405002050726F6763
:104D400072616D2053746172740D0A008268C968C3
:104D500042F400728260134A0020C91C9060D06047
:104D600002F1100021F003018160C1601030303287
:104D70008160C16001F530409060D0601032906079
:104D8000D06002F110008160C16010308160C160AC
:104D9000103001F500718160C16010308160C16028
:104DA000012070474C010020C86826490A688860C5
:104DB00042F000420A60C86010310A6842F00042C6
:104DC0000A6000F500628A60CA6010310A6842F029
:104DD00000420A6000F520628A601B4A0244CA60F1
:104DE00010310A6842F000420A60184A02448A60A0
:104DF000CA6001F11002116841F00041116000F534
:104E000031219160D16002F110010A6842F0004244
:104E10000A6000F541228A60CA6010310A6842F0D7
:104E200000420A600A4A02448A60CA6010310A6875
:104E300042F000420A60074A10448860C8600120BE
:104E400070470000DC010020000A0B00000E0B0080
:104E500000120C00001E0C0001EB8202DFED090ABB
:104E60000CE000BF91ED000AB5EEC00AF1EE10FAB9
:104E700001DCB0EE600AA0EC010A091D9142F1D3F9
:104E800070470000000000002DE9F0479946DDE979
:104E900008860C4601EB8207054608E04A46214693
:104EA000284600F009F804EB880405EB8605BC42AF
:104EB000F4D3BDE8F08700002DE9F04106462DED62
:104EC000028B17460D4691ED008ADFED1E8A012008
:104ED0000CE000BF05EB800191ED000AB4EEC80ABA
:104EE000F1EE10FA01D3B0EE408A401CB842F1D383
:104EF00000240EE005EB840090ED000A30EE480A35
:104F0000FDF75EFA06EB840070EE288A80ED000A59
:104F1000641CBC42EED3F7EE000A002080EEA80A23
:104F200009E000BF06EB8001401CD1ED000A60EEF5
:104F3000800AC1ED000AB842F4D3BDEC028BBDE893
:104F4000F08100000000000070B501EB820417E062
:104F5000002211E000EB820501EB820695ED000ACC
:104F6000D6ED000AB4EEE00AF1EE10FA01DCB0EE84
:104F7000600A85ED000A521C9A42EBD301EB8301D3
:104F8000A142E5D370BD0000E07B0C081080010059
:104F900001000100181E0C000000000010000100BC
:104FA0000100010004B20000000000000000000049
:104FB000754200088D4200085D42000887420008E3
:104FC0007D4200081543000837430008814200086D
:104FD00000000000000000000102030406070809A9
:104FE000A0860100400D0300801A060000350C0069
:104FF00040420F0080841E0000093D0000127A002C
:105000000024F40000366E010048E801006CDC0268
:1050100000000000010203048CF58EBFD83A014164
:10502000C3B8CD3FED788BBE995BFC401BAD973F7D
:105030007D897E3FA2D02C410D224440AE7F84BFAB
:10504000CA0D5941A22ED83FE95DA7BF179233413F
:105050000F5CEB3F7D897EC015580C410F5CEB3F28
:10506000FF96F0BF391CA940DCB310400AE81CC011
:1050700095844140FF96F03F2C72123F9CD9CC4062
:10508000749C204191AD86C0DEEDB740AE7F844078
:1050900036E201C0ABA30841251D0740E542C33EEF
:1050A000D0A60D41E95DA73FE95D27BF6B27F04022
:1050B00006CD383F2857AEBE42EF044145C6BF3F3C
:1050C000251D07C0DDAE4F41E127DF3D243CCAC0AE
:1050D00001154141E542C33EE127DF3DF46AAA40A4
:1050E000FF96F03FFF96F0BF377F9540F9222240B0
:1050F0002021E6BF9E13F440999FA540F922A2BF4C
:10510000D83A01419CD9CC40B52D7AC00115414116
:1051100081A462BFC7D3313F94898241E95D27BD35
:105120008CF58E3F0D224441ED788BBEF922A23FD3
:10513000B7B00B416B6B19BE6B6B19BE42EF0441EC
:10514000E542C33E7D897EBFD51A5C419169DD3F52
:1051500098BE68C00EBF57412C7212BF7D897EC0B9
:105160005E1F2E41568BBA3FE95D273D5270D640F7
:10517000AE7F843FE542433E67503540FC5C49408A
:1051800064160EC055EEA640B156BF408322B3C090
:1051900036E20141EFB2324081A462BF952616414A
:1051A00031E6E03FE54243BEDCB310413501C53F87
:1051B00081A462BF87F9ED40EED1F53F7815B0BF0D
:1051C000ED3462419FF4304088DAAABF5DE045418A
:1051D000AE7F843FB52D7AC042EF04410AE89C3F80
:1051E00045C6BFBF36E281407D897E3FE542C3BFF1
:1051F0003501C53FDEED37401BAD17C0FFDA194161
:10520000C35A22413E9077C0B3F3524082851F407B
:105210002C7212BF999FA5406750B53F2C7292BF68
:1052200042EF04412C72923F8CF58E3FB7B00B4198
:1052300028572E406B6B99C0E1275F410AE89C3FDD
:1052400088DAAABF0D22444136E20140094B89C0E9
:1052500067F209416750B53F9DBA89BF3E907740DC
:105260002C72923FFF96F0BF934A1A407B309440D5
:10527000F23083C0EB974E41F7A4D1400AE81CC03E
:10528000391C2941B3F352400AE89CBFF841E5407C
:10529000B3F3D23F2C7292BF59090B41A22ED83FD3
:1052A000AE7F84BF094B0941C3B84D40934A1AC031
:1052B000530D6A41B3F352405F1AED3E52122B4137
:1052C000EFB232406B6B99C0698ADC401BAD97BF6F
:1052D0002C7212BFB3F352401BAD973F84BF46C040
:1052E0009DBA0940C5998A40C3B84DC00B8530416D
:1052F000934A9A4028572EC05BE5064145C6BF3FFA
:10530000F922A2BF717CFB403501C53FAE7F04C0CE
:10531000B490E640FF96F03F6B6B99BED9D714412D
:10532000A22E5840D47DC8BFA50A544164160E4031
:10533000698A5CC0D51A5C410AE81C404DFC87C0F4
:10534000688F1D411BAD17409DBA89BFF9DEF8403B
:10535000A22ED83FAE7F84BF9FF43040F922224076
:10536000202166C0243CCA40C7D3314191AD86C0DC
:1053700091AD8640DCB31040C7D331BF0EBFD740DC
:1053800045C6BF3F0AE89CBF952616410AE81C3F68
:10539000E95DA73D9E13F4409FF430409E1374BF17
:1053A0004ADC62419FF4304028572EC08F8D614106
:1053B000CE283D406B6B99C055AAFD402857AE3EA4
:1053C000E95DA7BF4E999B40ED788B3E6750B5BF16
:1053D000E542C33E391C2940C3B84DC051D3C24039
:1053E000A36D4041094B89C04E991B4136E20140F3
:1053F0003B5650C087F9ED40E95DA73FE542433E8B
:10540000B98C074181A462BFE95DA7BD20650F414A
:105410007D897EBF5F1AEDBEAC401C417815B03F60
:1054200066B3A1C0179233415F1A6DBE995BFCC091
:10543000D2A14C41FF96F0BF0F5CEB3F3A5B1141AC
:10544000EED1F53F6B6B193EC6F27440EED1F53FDD
:10545000D7A350C085EB91410AD7233DCDCCEC407A
:10546000E17A284114AEA73FF62894403333DB405D
:10547000D7A3F0BFE17A84C00000B8403333D3BF74
:105480001F856BBED7A350401F850BC0AE47B940E8
:10549000666666405C8F8A4000006441713D7A41D7
:1054A00085EB91C0AE4799C0D7A36C4185EB814095
:1054B00085EB91C052B83E410AD743C0A470F54075
:1054C000E17A404185EB01406666D64033331B41AB
:1054D0005C8FE24052B89E3E52B8C640CDCC7C4074
:1054E0009A9919BE1F851741333353C03333D33FC5
:1054F000295C8141B81E85BFAE474140A47025415B
:105500003D0A573FEC51D83FCDCC9C40713DAABFDE
:105510000AD723C0CDCC7C401F85EBBF52B89E3E3E
:10552000C3F5A840F6289440EC51A04033334F41D6
:105530003D0A2341A470DD3F713D4A41A4702541DD
:105540000AD7A33D713DDA4014AE07BF85EB814019
:105550001F85BB40D7A320C19A99F14033335F41E7
:10556000C3F50CC1D7A39040D7A34C41295C5FC0C1
:105570000AD7A33D295C1F413D0A973F5C8FC23E7D
:1055800048E1F240333313C08FC2A540EC51D04004
:1055900085EB91BF3D0ACF409A99054148E1C2C0D1
:1055A000D7A3C040AE4755417B146E40CDCC3441AB
:1055B00048E14241AE474140F628A440C3F5684166
:1055C000AE47E13FD7A3C0C03D0A9B41A470C5C010
:1055D000D7A31040C3F5684185EB21C03D0A573F72
:1055E0005C8F0A41000088C00AD7A33D0AD7234038
:1055F0005C8FAAC0295CBFC0B81E853FEC51A0C01B
:10560000C3F568BFE17A6440295C8FBFAE471141A2
:105610005C8F8E4185EB4D41B81EC53F48E1164178
:10562000C3F5A840C3F568BF3D0A57411F856B40CD
:10563000B81EADC0CDCC0041CDCCECC0B81E35C03D
:1056400085EB3541000020C114AEF740B81E5D4126
:105650003D0ACFC0000000BFAE4711410000003F2F
:105660009A9999BE14AE234152B83EC0D7A3704058
:10567000B81EE540713DAABFAE47994052B8EE4012
:1056800085EB81C0B81EAD4085EB2141B81E853F3A
:105690003333EB409A993941C3F508C066662A4115
:1056A0008FC231413D0AA7409A9949400AD75F41CC
:1056B0000AD7A3BDA470B5C0B81E9341EC51D0C0A9
:1056C000A470B5C0B81E9341EC51D0C0295CAF4066
:1056D00048E1624152B8FEBF9A9919BE0AD7034108
:1056E0005C8FAAC07B14AEBED7A390405C8F72C003
:1056F00052B8B6C0C3F56840A4704DC0000030C0B9
:105700006666D6400000C03F14AE13419A996141CD
:105710008FC231417B142E40F628B440A4704D4016
:10572000D7A380C09A997941D7A35040B81EADC085
:1057300052B8EE401F8517C10AD72340AE478541B6
:1057400085EB19C1F6289440295C2741F6281CBF37
:10575000A470DD3F5C8F0A416666E6BFCDCC5C403D
:10576000E17A0441C3F508C00AD7E3409A9905419C
:105770009A99193E7B14EE409A9905413D0A97BFCC
:105780003333EB403D0A2341CDCC5C4014AEF740AF
:10579000C3F55041EC51383FAE4741C0B81E874178
:1057A000713D1A4052B87EC08FC28F41AE47B9C01A
:1057B00085EB614048E13241CDCC1CC0333313400E
:1057C0003D0ADF408FC2F5BF14AEA73FCDCC5C4091
:1057D000E17A04C0EC51D8BF295C8F401F85EBBF34
:1057E0003333D33FC3F5F840A4704D40713D5A4068
:1057F00033331B41B81ED5407B142E40000020419E
:10580000D7A3E840000030C052B85A41D7A3104097
:10581000333373BFAE471141000088C0AE47994093
:10582000E17A4841333353C0CDCC9C4014AE234180
:105830001F856B3E33331340D7A310413D0A47C049
:10584000295C1F40713D0641A4709D3F3D0ACF4039
:10585000D7A3084185EB2140C3F568400AD703412F
:10586000295C1F408FC28540B81EE5409A99F93FD8
:10587000D7A350409A99F140A470DD3FCDCC1C4095
:1058800052B80E418FC215C0C7D331BF82E34A411F
:105890000E03013FAA64A040753934419E13743F42
:1058A0000AE89C405E1F2E41E95DA7BD0AE81CBFC7
:1058B000B1F89341958441401BAD97BF5FBC414116
:1058C000B490E6407815B03F82851FC03B56D0C0EB
:1058D0000AE81CBF391C2941239FB6400E0301BFB3
:1058E000E1275F4159C5E1405BE506C1239F364191
:1058F000DD50A4409E13743F7815B03FB3F3D23F00
:10590000F23003C15B949C4128572E406750B53F4D
:105910009A3CB9401DE73E40FF96F0BF1DE73EC0F0
:105920006B6B99BE0D22C4C0AE3BDB40948902C1B3
:10593000568BBA407E0C9041ABA3084168EDC8403D
:105940001DE73E40568B3A40D47DC8BF42EF04412C
:10595000568BBABF59C561405E7D5941F3CD1641A2
:1059600036E201C0239FB6C0210223C19FF430401C
:10597000CF6725414E991BC1D06264401ACC5A4171
:105980003501C53F0E0301BF3E90774087F96D405A
:10599000545113C0A22ED83FE95DA73DD06264C028
:1059A0005B949C413B56D040C3B84DBFB3F352C04B
:1059B0007B3094C00E03013F00782D416C66584146
:1059C000239FB64057867941C970C540C5990AC121
:1059D00098BEE8407A93804088DAAABF0AE89C3FE4
:1059E0001BAD1740C0E192C05B949C41F3CD964043
:1059F0003E907740FF967040A22E583F2021E6BF90
:105A00003501C53FB7B00B415A62F5407539344195
:105A1000E95DA7BF1BAD17C09A9A6441AE7F0441F0
:105A200028572E40568BBA3F81A4623F202166C082
:105A30006D479541E95D27BF2DCB7C40AE7F84400B
:105A4000A5687F405F1AED3E934A1AC0934A1A40F8
:105A50004E557240ED346241FC5C49C02A9155407C
:105A6000FFDA9941F7A4D1406750B5404E557240D6
:105A70004DFC073F5F1A6D3EE542433FE542433F21
:105A8000934A9AC05B949C41948902410F5CEB3F1E
:105A90008CF58EBFEFB232C0B3F352C0D243214176
:105AA000C7315D412EAC3941ABA3884188DAAA3FAA
:105AB0004C1B4BC0D33E6041239FB6400AE81C3FBD
:105AC0008CF58E3F49E12340995BFCC05B949C417F
:105AD0007D89FE3FFC5C49407DCDA740377F9540E6
